{
  "_format": "hh-sol-artifact-1",
  "contractName": "Info",
  "sourceName": "contracts/Info.sol",
  "abi": [
    {
      "inputs": [],
      "name": "get",
      "outputs": [
        {
          "internalType": "uint256[]",
          "name": "",
          "type": "uint256[]"
        }
      ],
      "stateMutability": "view",
      "type": "function"
    },
    {
      "inputs": [
        {
          "internalType": "uint256",
          "name": "",
          "type": "uint256"
        }
      ],
      "name": "list",
      "outputs": [
        {
          "internalType": "uint256",
          "name": "",
          "type": "uint256"
        }
      ],
      "stateMutability": "view",
      "type": "function"
    },
    {
      "inputs": [],
      "name": "set",
      "outputs": [],
      "stateMutability": "nonpayable",
      "type": "function"
    }
  ],
  "bytecode": "0x608060405234801561001057600080fd5b506102ed806100206000396000f3fe608060405234801561001057600080fd5b50600436106100415760003560e01c80636d4ce63c1461004657806380c9419e14610064578063b8e010de14610094575b600080fd5b61004e61009e565b60405161005b919061020d565b60405180910390f35b61007e60048036038101906100799190610260565b6100f6565b60405161008b919061029c565b60405180910390f35b61009c61011a565b005b606060008054806020026020016040519081016040528092919081815260200182805480156100ec57602002820191906000526020600020905b8154815260200190600101908083116100d8575b5050505050905090565b6000818154811061010657600080fd5b906000526020600020016000915090505481565b6000429080600181540180825580915050600190039060005260206000200160009091909190915055565b600081519050919050565b600082825260208201905092915050565b6000819050602082019050919050565b6000819050919050565b61018481610171565b82525050565b6000610196838361017b565b60208301905092915050565b6000602082019050919050565b60006101ba82610145565b6101c48185610150565b93506101cf83610161565b8060005b838110156102005781516101e7888261018a565b97506101f2836101a2565b9250506001810190506101d3565b5085935050505092915050565b6000602082019050818103600083015261022781846101af565b905092915050565b600080fd5b61023d81610171565b811461024857600080fd5b50565b60008135905061025a81610234565b92915050565b6000602082840312156102765761027561022f565b5b60006102848482850161024b565b91505092915050565b61029681610171565b82525050565b60006020820190506102b1600083018461028d565b9291505056fea26469706673582212208b9feb8baebbbc4b08fcd1558fb16b87b7d1e9c2cd0a130e512adbfb4c73a38664736f6c63430008130033",
  "linkReferences": {},
  "deployedLinkReferences": {}
}