{
  "_format": "hh-sol-artifact-1",
  "contractName": "name",
  "sourceName": "contracts/name.sol",
  "abi": [
    {
      "inputs": [],
      "name": "addage",
      "outputs": [],
      "stateMutability": "nonpayable",
      "type": "function"
    },
    {
      "inputs": [],
      "name": "getallarray",
      "outputs": [
        {
          "internalType": "uint256[]",
          "name": "",
          "type": "uint256[]"
        }
      ],
      "stateMutability": "view",
      "type": "function"
    },
    {
      "inputs": [],
      "name": "getcount",
      "outputs": [
        {
          "internalType": "uint256",
          "name": "",
          "type": "uint256"
        }
      ],
      "stateMutability": "view",
      "type": "function"
    }
  ],
  "bytecode": "0x608060405234801561001057600080fd5b50610265806100206000396000f3fe608060405234801561001057600080fd5b50600436106100415760003560e01c8063146af82b14610046578063a67ab6cf14610064578063b46683b914610082575b600080fd5b61004e61008c565b60405161005b91906101d1565b60405180910390f35b61006c610098565b60405161007991906101af565b60405180910390f35b61008a6100f0565b005b60008080549050905090565b606060008054806020026020016040519081016040528092919081815260200182805480156100e657602002820191906000526020600020905b8154815260200190600101908083116100d2575b5050505050905090565b6000429080600181540180825580915050600190039060005260206000200160009091909190915055565b60006101278383610191565b60208301905092915050565b600061013e826101fc565b6101488185610214565b9350610153836101ec565b8060005b8381101561018457815161016b888261011b565b975061017683610207565b925050600181019050610157565b5085935050505092915050565b61019a81610225565b82525050565b6101a981610225565b82525050565b600060208201905081810360008301526101c98184610133565b905092915050565b60006020820190506101e660008301846101a0565b92915050565b6000819050602082019050919050565b600081519050919050565b6000602082019050919050565b600082825260208201905092915050565b600081905091905056fea2646970667358221220c1f4e2436b11baf1a574f160439feb0354033011a57f58c839de16f4cfd41d2a64736f6c63430008000033",
  "linkReferences": {},
  "deployedLinkReferences": {}
}